:1000000028670120BD32010025000400A93201004B
:10001000A9320100A9320100A9320100A932010070
:10002000000000000000000000000000DD340100BE
:10003000A93201000000000031340100A9320100A2
:10004000BD370100BD370100BD370100BD370100DC
:10005000BD370100BD370100BD370100BD370100CC
:10006000BD370100BD370100BD370100BD370100BC
:10007000BD370100BD370100BD370100BD370100AC
:10008000BD370100BD370100BD370100BD3701009C
:10009000BD370100BD370100BD370100BD3701008C
:1000A000BD370100BD370100BD370100BD3701007C
:1000B000BD370100BD370100BD370100BD3701006C
:1000C000BD370100BD370100BD370100BD3701005C
:1000D000BD370100BD370100BD370100BD3701004C
:1000E000BD370100BD370100BD370100BD3701003C
:1000F000BD370100BD370100BD370100BD3701002C
:10010000BD370100BD370100BD370100BD3701001B
:10011000BD370100BD370100BD370100BD3701000B
:10012000BD370100BD370100BD370100BD370100FB
:10013000BD370100BD370100BD370100BD370100EB
:10014000BD370100BD370100BD370100BD370100DB
:04015000BD370100B6
:04015400FFFFFFFFAB
:1001580081F0004102E000BF83F0004330B54FEA70
:1001680041044FEA430594EA050F08BF90EA020FDD
:100178001FBF54EA000C55EA020C7FEA645C7FEA70
:10018800655C00F0E2804FEA5454D4EB5555B8BF93
:100198006D420CDD2C4480EA020281EA030382EA04
:1001A800000083EA010180EA020281EA0303362D96
:1001B80088BF30BD11F0004F4FEA01314FF4801C69
:1001C8004CEA113102D0404261EB410113F0004F7B
:1001D8004FEA03334CEA133302D0524263EB430332
:1001E80094EA050F00F0A780A4F10104D5F1200ED0
:1001F8000DDB02FA0EFC22FA05F2801841F100012B
:1002080003FA0EF2801843FA05F359410EE0A5F1FE
:1002180020050EF1200E012A03FA0EFC28BF4CF02F
:10022800020C43FA05F3C01851EBE37101F00045E5
:1002380007D54FF0000EDCF1000C7EEB00006EEBF2
:100248000101B1F5801F1BD3B1F5001F0CD349087C
:100258005FEA30004FEA3C0C04F101044FEA4452D3
:1002680012F5800F80F09A80BCF1004F08BF5FEA5A
:10027800500C50F1000041EB045141EA050130BD3A
:100288005FEA4C0C404141EB0101013C28BFB1F54C
:10029800801FE9D291F0000F04BF01460020B1FA97
:1002A80081F308BF2033A3F10B03B3F120020CDA6A
:1002B8000C3208DD02F1140CC2F10C0201FA0CF048
:1002C80021FA02F10CE002F11402D8BFC2F1200CAD
:1002D80001FA02F120FA0CFCDCBF41EA0C01904063
:1002E800E41AA2BF01EB0451294330BD6FEA0404AC
:1002F8001F3C1CDA0C340EDC04F11404C4F1200297
:1003080020FA04F001FA02F340EA030021FA04F3A8
:1003180045EA030130BDC4F10C04C4F1200220FAFF
:1003280002F001FA04F340EA0300294630BD21FA3D
:1003380004F0294630BD94F0000F83F4801306BF03
:1003480081F480110134013D4EE77FEA645C18BFF7
:100358007FEA655C29D094EA050F08BF90EA020F8E
:1003680005D054EA000C04BF1946104630BD91EA86
:10037800030F1EBF0021002030BD5FEA545C05D189
:100388004000494128BF41F0004130BD14F58004C8
:100398003CBF01F5801130BD01F0004545F0FE413C
:1003A80041F470014FF0000030BD7FEA645C1ABF71
:1003B800194610467FEA655C1CBF0B46024650EAA8
:1003C800013406BF52EA033591EA030F41F40021D4
:1003D80030BD00BF90F0000F04BF0021704730B55A
:1003E8004FF4806404F132044FF000054FF000012F
:1003F80050E700BF90F0000F04BF0021704730B5F0
:100408004FF4806404F1320410F0004548BF4042C4
:100418004FF000013EE700BF42004FEAE2014FEA19
:1004280031014FEA02701FBF12F07F4393F07F4FF4
:1004380081F06051704732F07F4208BF704793F0F7
:100448007F4F04BF41F40021704730B54FF460740A
:1004580001F0004521F000411CE700BF50EA01020D
:1004680008BF704730B54FF000050AE050EA0102B6
:1004780008BF704730B511F0004502D5404261EB26
:1004880041014FF4806404F132045FEA915C3FF467
:10049800D8AE4FF003025FEADC0C18BF03325FEA04
:1004A800DC0C18BF033202EBDC02C2F1200300FAB5
:1004B80003FC20FA02F001FA03FE40EA0E0021FADA
:1004C80002F11444BDE600BF70B54FF0FF0C4CF4C8
:1004D800E06C1CEA11541DBF1CEA135594EA0C0F7A
:1004E80095EA0C0F00F0DEF82C4481EA030621EAB5
:1004F8004C5123EA4C5350EA013518BF52EA0335F0
:1005080041F4801143F4801338D0A0FB02CE4FF0A1
:100518000005E1FB02E506F00042E0FB03E54FF0D1
:100528000006E1FB03569CF0000F18BF4EF0010EC9
:10053800A4F1FF04B6F5007F64F5407404D25FEAC5
:100548004E0E6D4146EB060642EAC62141EA555178
:100558004FEAC52040EA5E504FEACE2EB4F1FD0CBA
:1005680088BFBCF5E06F1ED8BEF1004F08BF5FEA38
:10057800500E50F1000041EB045170BD06F00046EA
:1005880046EA010140EA020081EA0301B4EB5C0497
:10059800C2BFD4EB0C0541EA045170BD41F480118F
:1005A8004FF0000E013C00F3AB8014F1360FDEBFB4
:1005B800002001F0004170BDC4F10004203C35DA90
:1005C8000C341BDC04F11404C4F1200500FA05F313
:1005D80020FA04F001FA05F240EA020001F00042B4
:1005E80021F0004110EBD37021FA04F642EB06012A
:1005F8005EEA430E08BF20EAD37070BDC4F10C0454
:10060800C4F1200500FA04F320FA05F001FA04F217
:1006180040EA020001F0004110EBD37041F1000103
:100628005EEA430E08BF20EAD37070BDC4F120050E
:1006380000FA05F24EEA020E20FA04F301FA05F276
:1006480043EA020321FA04F001F0004121FA04F21E
:1006580020EA020000EBD3705EEA430E08BF20EAEE
:10066800D37070BD94F0000F0FD101F00046400028
:1006780041EB010111F4801F08BF013CF7D041EAAA
:10068800060195F0000F18BF704703F000465200AE
:1006980043EB030313F4801F08BF013DF7D043EA7F
:1006A8000603704794EA0C0F0CEA135518BF95EA35
:1006B8000C0F0CD050EA410618BF52EA4306D1D1BC
:1006C80081EA030101F000414FF0000070BD50EADB
:1006D800410606BF1046194652EA430619D094EA65
:1006E8000C0F02D150EA013613D195EA0C0F05D14F
:1006F80052EA03361CBF104619460AD181EA0301A3
:1007080001F0004141F0FE4141F470014FF000005A
:1007180070BD41F0FE4141F4780170BD70B54FF0F5
:10072800FF0C4CF4E06C1CEA11541DBF1CEA135575
:1007380094EA0C0F95EA0C0F00F0A7F8A4EB050457
:1007480081EA030E52EA03354FEA013100F088804E
:100758004FEA03334FF0805545EA131343EA126317
:100768004FEA022245EA111545EA10654FEA0026CC
:100778000EF000419D4208BF964244F1FD0404F585
:10078800407402D25B084FEA3202B61A65EB0305E1
:100798005B084FEA32024FF480104FF4002CB6EB9E
:1007A800020E75EB030E22BFB61A754640EA0C001E
:1007B8005B084FEA3202B6EB020E75EB030E22BF5E
:1007C800B61A754640EA5C005B084FEA3202B6EB9F
:1007D800020E75EB030E22BFB61A754640EA9C005E
:1007E8005B084FEA3202B6EB020E75EB030E22BF2E
:1007F800B61A754640EADC0055EA060E18D04FEAEC
:10080800051545EA16754FEA06164FEAC30343EA8B
:1008180052734FEAC2025FEA1C1CC0D111F4801F58
:100828000BD141EA00014FF000004FF0004CB6E751
:1008380011F4801F04BF01430020B4F1FD0C88BFF0
:10084800BCF5E06F3FF6AFAEB5EB030C04BFB6EBFB
:10085800020C5FEA500C50F1000041EB045170BDEE
:100868000EF0004E4EEA113114EB5C04C2BFD4EB1B
:100878000C0541EA045170BD41F480114FF0000E9F
:10088800013C90E645EA060E8DE60CEA135594EA1B
:100898000C0F08BF95EA0C0F3FF43BAF94EA0C0F1E
:1008A8000AD150EA01347FF434AF95EA0C0F7FF493
:1008B80025AF104619462CE795EA0C0F06D152EAE7
:1008C80003353FF4FDAE1046194622E750EA4106CB
:1008D80018BF52EA43067FF4C5AE50EA41047FF4DC
:1008E8000DAF52EA43057FF4EBAE12E74FF0FF3C41
:1008F80006E000BF4FF0010C02E000BF4FF0010C12
:100908004DF804CD4FEA410C7FEA6C5C4FEA430C8A
:1009180018BF7FEA6C5C1BD001B050EA410C0CBFD9
:1009280052EA430C91EA030F02BF90EA020F00203B
:10093800704710F1000F91EA030F58BF994208BFA2
:1009480090422CBFD8176FEAE37040F0010070475F
:100958004FEA410C7FEA6C5C02D150EA013C07D1B6
:100968004FEA430C7FEA6C5CD6D152EA033CD3D001
:100978005DF8040B704700BF8446104662468C46FB
:100988001946634600E000BF01B5FFF7B7FF00282E
:1009980048BF10F1000F01BD4DF808EDFFF7F4FF57
:1009A8000CBF012000205DF808FB00BF4DF808EDE2
:1009B800FFF7EAFF34BF012000205DF808FB00BF05
:1009C8004DF808EDFFF7E0FF94BF012000205DF827
:1009D80008FB00BF4DF808EDFFF7CEFF94BF0120DC
:1009E80000205DF808FB00BF4DF808EDFFF7C4FFD5
:1009F80034BF012000205DF808FB00BF4FEA410228
:100A080012F5001215D211D56FF47873B3EB625258
:100A180012D94FEAC12343F0004343EA505311F07F
:100A2800004F23FA02F018BF404270474FF0000011
:100A3800704750EA013005D111F0004008BF6FF04F
:100A4800004070474FF00000704700BF4FEA410276
:100A5800B2F1E04324BFB3F5001CDCF1FE5C0DD914
:100A680001F0004C4FEAC0024CEA5070B2F1004F5E
:100A780040EB830008BF20F00100704711F0804F61
:100A880021D113F13872BCBF01F00040704741F426
:100A980080114FEA5252C2F11802C2F1200C10FA2A
:100AA8000CF320FA02F018BF40F001004FEAC1230E
:100AB8004FEAD32303FA0CFC40EA0C0023FA02F3B2
:100AC8004FEA4303CCE77FEA625307D150EA013388
:100AD8001EBF4FF0FE4040F44000704701F0004058
:100AE80040F0FE4040F40000704700BF7BB972B987
:100AF8000029BEBF00204FF0004106E008BF0028D3
:100B08001CBF6FF000414FF0FF3000F075B8ADF139
:100B1800080C6DE904CE002909DB002B1ADB00F074
:100B2800BAF8DDF804E0DDE9022304B0704740427A
:100B380061EB4101002B1BDB00F0ADF8DDF804E0B0
:100B4800DDE9022304B0404261EB4101524263EB0C
:100B580043037047524263EB430300F09CF8DDF80F
:100B680004E0DDE9022304B0404261EB4101704733
:100B7800524263EB430300F08EF8DDF804E0DDE950
:100B8800022304B0524263EB4303704753B94AB996
:100B9800002908BF00281CBF4FF0FF314FF0FF307D
:100BA80000F02AB8ADF1080C6DE904CE00F073F836
:100BB800DDF804E0DDE9022304B07047D0B5002277
:100BC8000B4B06460F46FFF77FFC00F017F804466C
:100BD800FFF700FC0022074BFFF776FC02460B46A6
:100BE80030463946FFF7B8FA00F008F82146D0BD7C
:100BF8000000F03D0000F041704700BF4A0011D2EC
:100C080012F5001211D20DD56FF47873B3EB62525E
:100C18000ED44FEAC12343F0004343EA505323FA6A
:100C280002F070474FF00000704750EA013002D1DF
:100C38004FF0FF3070474FF0000070474FEA410C0B
:100C48007FEA6C5C02D150EA013C0AD14FEA430CBE
:100C58007FEA6C5C02D152EA033C02D14FF00000FB
:100C680070474FF00100704738B500220023044652
:100C78000D46FFF79BFE28B920462946BDE83840B7
:100C8800FFF79CBF204605F10041FFF797FF404260
:100C980061EB410138BD2DE9F04786468C46084690
:100CA800089E154674461946002B40F0C1808542BF
:100CB800B2FA82F245D94AB1C2F1200300FA02FC25
:100CC800954094402EFA03F343EA0C0C4FEA154E74
:100CD800A8B2230CBCFBFEF80EFB18CC08FB00F9ED
:100CE80043EA0C43994528D9EB1808F1FF3704D299
:100CF800994502D9A8F102072B44A3EB0903A4B232
:100D0800B3FBFEFC0EFB1C330CFB00F044EA03446F
:100D1800A04214D92C190CF1FF3304D2A04202D9F5
:100D2800ACF102032C44241A43EA07401EB1D44014
:100D3800002334607360BDE8F0874746DDE763460B
:100D4800F1E792BB431B01214FEA154EAFB2200CCD
:100D5800B3FBFEFC0EFB1C330CFB07F840EA034315
:100D6800984561D9EB180CF1FF3004D2984502D9A7
:100D7800ACF102002B44A3EB0803A4B2B3FBFEFCC6
:100D88000EFB1C330CFB07F744EA0344A7424DD97A
:100D98002C190CF1FF3304D2A74202D9ACF102039B
:100DA8002C44E41B43EA0040C0E7C2F1200395400D
:100DB800944020FA03F12EFA03F34FEA154E9040BF
:100DC800AFB20343B1FBFEFC0EFB1C10190C0CFB6D
:100DD80007F841EA0041884522D969180CF1FF302B
:100DE80004D2884502D9ACF102002944A1EB0801DC
:100DF8009BB2B1FBFEFC0EFB1C110CFB07F743EA90
:100E080001439F420ED9EB180CF1FF3104D29F42E7
:100E180002D9ACF102012B44DB1B41EA004193E704
:100E28006046E3E76146F7E76046A4E76346B8E74C
:100E3800834206D916B9002108467CE7C6E900E0D6
:100E4800F9E7B3FA83F78FB9834201D3724508D81B
:100E5800BEEB020460EB030301209C461EB900218F
:100E680069E73846FAE7C6E9004CF8E7C7F1200C0D
:100E7800BB400EFA07F522FA0CF42EFA0CF1BA4030
:100E88001C4320FA0CF3B8404FEA144901431FFAF7
:100E980084FEB3FBF9F809FB18300B0C08FB0EFABB
:100EA80043EA00439A4540D9E31808F1FF3004D2D9
:100EB8009A4502D9A8F102002344A3EB0A0389B298
:100EC800B3FBF9F809FB183308FB0EFE41EA0341AE
:100ED8008E452CD9611808F1FF3304D28E4502D90A
:100EE800A8F10203214443EA0040A1EB0E01A0FB54
:100EF80002984145CE46434602D306D14D4504D219
:100F08000138B9EB020E68EB0403002EA7D0B5EB4D
:100F18000E0261EB030101FA0CFC22FA07F3F94017
:100F28004CEA0303C6E9003199E74046C5E7434662
:100F3800D9E770B4840746D04C1E002941D0D5B2F9
:100F4800034602E0611EE4B30C4603F8015B99070F
:100F5800F8D1032C2ED9D5B245EA05250F2C45EA40
:100F6800054519D9264603F11001103E0F2E41F808
:100F7800105C41F80C5C41F8085C41F8045C01F134
:100F88001001F2D8A4F1100121F00F0104F00F04B0
:100F98001031032C0B440DD91E4621460439032970
:100FA80046F8045BFAD8211F21F0030104310B44F1
:100FB80004F003042CB1D2B21C4403F8012BA34261
:100FC800FBD170BC70470C460346C2E710F8012BF2
:100FD80011F8013B012A28BF9A42F7D0D01A70476E
:100FE800034613F8012B002AFBD1181A0138704761
:100FF8002DE9F04D2DED028B88B000AF0546406815
:101008008368DB683A219847041EC0F23381686818
:1010180083681B6907F118021E219847041EC0F255
:101028002981686883681B6907F1100220219847A5
:10103800041EC0F21F81686883681B6907F10802F3
:1010480021219847041EC0F21581914B1B6803F0BB
:101058000703022B40F215812E68B869FFF7CAF919
:1010680004460D46F869FFF7C5F987A3D3E90023BD
:10107800FFF754FB02460B4620462946FFF76EF859
:1010880000220023FFF76AF841EC180B3869FFF7D4
:10109800B1F904460D467869FFF7ACF97AA3D3E9AC
:1010A8000023FFF73BFB02460B4620462946FFF785
:1010B80055F80022774BFFF707FA00220023FFF7C5
:1010C8004DF882468B46B868FFF794F904460D46FA
:1010D800F868FFF78FF96CA3D3E90023FFF71EFB2D
:1010E80002460B4620462946FFF738F80022694B8E
:1010F800FFF7EAF900220023FFF730F841EC170B5D
:101108006D4600233B7102237B711C230C2213F0D4
:10111800070F02D10832083304E004320433F6E73B
:101128000432043313F0070FFAD10832083301E010
:101138000432043313F00704FAD102F10A0C6346AF
:10114800213222F00702ADEB020D6A46BCF1000F16
:101158007AD002F11008BCF1030F73D9B8F1000F6F
:1011680004D0BCF1040F01DD4B4B536100233B70ED
:1011780002237B70B8F1000F03D0BCF1080F00DD2B
:1011880096611C210C200B4611F0070F0DD18646E5
:10119800B8F1000F05D0604503DA08EB000181EDD6
:1011A800008B0EF1080E083305E004300431EAE73D
:1011B8000EF1040E0433194613F0070FF8D17646E2
:1011C800B8F1000F05D0E64503DA08EB0E03C3E9D2
:1011D80000AB083601F1080301E00436043313F0CC
:1011E800070FFAD13346B8F1000F05D0664503DA88
:1011F80008EB060181ED007B03F108060A33B8F11C
:10120800000F0DD008EB0601002007E000F1200ECA
:10121800BE441EF820EC01F801EB01300128F5D995
:101228009C4501DA6FF01B03B8F1000F0CD0C6F330
:1012380087063E7100217971B9710121F9717868C9
:10124800106101E06FF01B0300216FF300016FF3E1
:1012580041016FF382016FF3C501032060F3881128
:1012680063F353216FF31F511032002308480DF028
:101278009FFAAD4620462037BD46BDEC028BBDE83F
:10128800F08D0024F6E700BF0000000080842E41A6
:10129800780D002000408F407CCF04000000000043
:1012A80010B584460C460C48ACFB000108A3D3E9F2
:1012B80000234FF0070E0EFB0C11FFF767FC074BDE
:1012C8001B68074A02FB0300204410BDAFF30080EF
:1012D80000CA9A3B000000008D49FD1AB4CA0020DC
:1012E8000080841E000000002DE9F04F8FB00B90A5
:1012F8000D46174647F068FA4B0143EAD0634401AC
:10130800241A63EB01039B0043EA9473A400241896
:1013180043EB0101C90041EA5471C4F3103444EAB3
:1013280041444FEAD138012D68D07D6829464048AC
:10133800FFF74CFE28B129463E48FFF747FE002834
:1013480066D139A3D3E9002320464146FFF7CEFBF7
:101358000C900E4634A3D3E9002320464146FFF7FC
:10136800C5FB15461C46344A002328462146FFF78C
:10137800BDFB07460D91304A002328462146FFF75A
:10138800B5FB15461C464EF660220023284621462A
:10139800FFF7ACFB814688464EF6602200232846BC
:1013A8002146FFF7A3FB15461C464FF47A7200232B
:1013B80028462146FFF79AFB83468A464FF47A72FD
:1013C800002328462146FFF791FBCDE90823CDF8F5
:1013D80018B0CDF81CA0CDF81090CDF81480029765
:1013E8000D9B03930C9B00930196144A08210B98BC
:1013F8003DF03CFD00200FB0BDE8F08F0094CDF823
:1014080004800F4A08210B983DF030FD0020F2E7D8
:101418002B460C4A01210B983DF028FD6FF0040083
:10142800E9E700BFAFF30080005C2605000000007C
:1014380074E5040078E5040080EE36009CE50400BD
:1014480060E5040084E5040030B589B00C9D0028EF
:1014580039D00446002943D0D0F8200110F0010FFC
:101468004BD10020C4F80801C4F80C0104F58870B9
:10147800C4F81001C4F8140104F58C70C4F81801FC
:10148800C4F81C01002D45D02879002844D101203A
:10149800C4F820019FED227B8DED067B002004908F
:1014A80003930290019000941F4B204625F0F0FD15
:1014B80025B1296811B1204625F0B4FB204646F035
:1014C800DBFE09B030BD194C4FF43373224618497E
:1014D80018483CF0B1FB4FF43371204609F05EF830
:1014E800124C40F2CD232246134912483CF0A4FB8B
:1014F80040F2CD21204609F051F80C4C40F2CE23A1
:1015080022460E490B483CF097FB40F2CE2120467C
:1015180009F044F80120BBE740F20110B8E700BF2A
:10152800FFFFFFFFFFFFFFFF298002001C6D050082
:10153800046E0500E8A304000C6E0500146E050097
:101548009FED010B704700BF000000000000F87F0E
:101558002DE9F04F1F469DB000230C4682460F929E
:1015680018934FF00008984B4FF000091D68284663
:10157800FFF736FD22468346179213782B2B3BD074
:101588002CD80D2B26D8082B26D8002B2FD000239B
:101598000D93179E3378302B74D1737803F0DF03E3
:1015A800582B65D10D9B17A9884A5046019318AB53
:1015B8000297009319AB3AF095FA10F00705044624
:1015C80035D0062D1AD10F9B0BB101361E6042464D
:1015D8004B4637E0202BDAD10132CDE72D2BD6D17F
:1015E80001230D93531C17935378002BD1D10F9BD4
:1015F800002BECD01C60EAE70023F2E7189A3AB116
:1016080035211AA847F091FF189950463AF02AFD5B
:10161800013D199A042D06D8DFE805F019032225A3
:101628001900DDE91A89210701D549F000490F9B06
:1016380013B1179B0F9A13600D9B002BC7D042461E
:1016480009F1004343EC102B1DB0BDE8F08FDDE934
:101658001A8302F2334223F4801343EA0259E2E781
:10166800DFF86C91DFE76FF000494FF0FF38DAE7F9
:10167800179B5A1C17925B78302BF9D0002BD6D0C9
:10168800012300E00023002704930A22179BCDE9D9
:1016980005770A9317980678A6F13003D9B2092975
:1016A80024D95A46294647F08EFB00282DD0002021
:1016B8003246059D83460346652A01D0452A13D143
:1016C8001DB9049A024392D00025179C621C1792F8
:1016D80062782B2A6ED02D2A72D04FF0000CA2F11E
:1016E800300109297AD91794002699E00599013023
:1016F80008291790D7BF069902FB073702FB013369
:101708000693059B01330593C4E7179B03EB0B0274
:10171800179213F80B20059BA3B383461D46A2F12D
:101728003003092B12D90123C6E7179B01305A1C35
:1017380017925A78302AF8D0A2F13103082B00F218
:10174800EF8483460020179B05460A93303A00F140
:10175800010311D09B4400EB050C2B460A2163457D
:1017680012D12B180135082B054419DC06990A23D8
:1017780003FB012306930023179A1846511C17915F
:101788005278CCE70598D5E7082B03F1010303DC71
:10179800069E4E430696E2E7102BD8BF4F43DEE77E
:1017A8000F2BDCBF0A2303FB0727E4E74FF0000BEE
:1017B800012386E74FF0000CA21C1792A2788EE74F
:1017C8004FF0010CF8E700BF749D0500009D05006F
:1017D8000000F07F179A511C17915278302AF9D0DF
:1017E800A2F1310108293FF67FAF303A0792179AE4
:1017F8000C92179A561C17965278A2F1300EBEF129
:10180800090F38D90C99761A082E44F61F6603DC9E
:1018180007998E42A8BF0E46BCF1000F00D0764251
:10182800002D4FD1049908437FF401AF002B7FF4BA
:10183800DEAE692A29D026DC492A26D04E2A7FF432
:10184800D6AE9B4917A847F0E0FC00283FF4CFAE7E
:10185800179B1B78282B2FD11AAA964917A847F04F
:10186800E8FC052828D11B9BDDF8688043F0FF4978
:1018780049F4E009DBE6079E0A2101FB0621A1F1F4
:1018880030020792B5E76E2AD9E78B4917A847F0C7
:10189800BCFC00283FF4ABAE179B17A88749013B57
:1018A800179347F0B2FC10B9179B01331793DFF871
:1018B8001C924FF00008BAE68148FFF741FE59EC48
:1018C800108BB4E6A6EB0B0306982C460C93059BED
:1018D800002B08BF2B46102D0593A8BF1024FEF738
:1018E80079FD092D8046894613DC0C9B002B3FF4BB
:1018F8009EAE0C9B78DD162B45DC7249424601EB07
:10190800C3014B46D1E90001FEF7DEFD804689465A
:101918008DE66C4B03EBC40353E91223FEF7D4FDA9
:10192800804689463846FEF755FD02460B46404636
:101938004946FEF713FC0F2D80468946D5DD2C1B42
:101948000C9B1C44002C25DC00F0A280644214F09F
:101958000F020AD05B4B4046494603EBC203D3E96A
:101968000023FEF7DBFE80468946241100F09080B4
:101978001F2C40F3B18022234FF000084FF00009DC
:10198800CAF8003053E6C5F125030C9A934219DAD8
:101998002C1B144414F00F030AD04A49424601EBA9
:1019A800C3014B46D1E90001FEF78EFD804689460A
:1019B80034F00F046CD0B4F59A7F41DD2223CAF8C5
:1019C800003074E7C5F10F053E4C42464B4604EB28
:1019D800C501D1E90001FEF777FD0C9B5D1B04EB07
:1019E800C504D4E900238FE71633A8DBABEB060266
:1019F800344B4046494603EBC203D3E90023FEF7C4
:101A08008DFE83E7002306932223DFF8C0904FF072
:101A18000008CAF80030189950463AF023FB069996
:101A280050463AF01FFB059950463AF01BFB1099B7
:101A380050463AF017FB079950463AF013FBF6E583
:101A480000232411404649461F4F0493012C22DCF1
:101A58000BB180468946049BA9F154791A4942463C
:101A680001EBC3014B46D1E90001FEF72DFD174BF1
:101A78000A4680460B4016498B429FD8A1F5801133
:101A88008B4286BFDFF84C904FF0FF3802F1547953
:101A9800002304934BE0E20704D5D7E90023FEF7BF
:101AA80013FD0123049A6410083701320492CDE72C
:101AB800F5E50500EC9C0500EDE505001FE60500D1
:101AC800D5E4050098A1040070A104000000F07F8F
:101AD8000000A07CFFFFEF7F14F01003404649464A
:101AE800AA4F18BF6A2304930023E20704D5D7E955
:101AF8000023FEF7E9FC0123641007F10807F4D17D
:101B08000BB180468946049B43B1C9F30A52494642
:101B1800C2F16B03002B4EDC6A23049300220023DE
:101B280040464946FEF738FF00287FF424AF069B5D
:101B38005046059A00932B460A993AF0FDFA109000
:101B480000283FF43BAF0C9BABEB060B002BB4BF5C
:101B58005B46002311930C9B23EAE3731393002342
:101B680007930593109B504659683AF03BFA069044
:101B780000283FF449AF109B0C301A6903F10C019F
:101B88000232920046F08CFF1AAA19A9504649EC75
:101B9800108BCDE90A893AF0ABFD189000283FF484
:101BA80033AF012150463AF011FB03460590D0B9F6
:101BB8000023059328E71F2B0EDD342B4FF0000878
:101BC800DBBF4FF0FF33C2F14B024FF05C7993401B
:101BD800D8BF03EA01099FE74FF0FF3202FA03F387
:101BE80003EA080898E7199C1A9A002CA9BF119BC8
:101BF800139BE718139EB8BF1E1B049BB8BF119F09
:101C0800E41A634B1444C2F13602013C9C4280F250
:101C1800B0801B1B01251F2BA2EB0302CDBFC4F113
:101C28007F449D40002404F57F04C2BF04F57B4433
:101C3800E23405FA04F407EB020B049B16445F45F3
:101C48001E443B46A8BF5B46B342A8BF3346002BA1
:101C5800C2BFABEB030BF61AFF1A119B002B16DD64
:101C68001A46059950463AF071FB059000289FD016
:101C78000146189A50463AF0BFFA0E9000283FF4F1
:101C8800C3AE189950463AF0EDF90E9B1893BBF184
:101C9800000F71DC0C9B002B08DD139A5046069947
:101CA8003AF054FB069000283FF4ACAE002E08DD55
:101CB8003246069950463AF0A3FB069000283FF4B6
:101CC800A1AE002F08DD3A46059950463AF098FB38
:101CD800059000283FF498AE069A504618993AF0B5
:101CE800FBFB079000283FF48FAEC36805990E935D
:101CF8000023C36047F0CCFB00284BDA0E9B53EA65
:101D0800080340F0BC80C9F31303002B40F0B780F0
:101D180029F000431B0D1B05B3F1D66F40F2AF80CD
:101D2800079B5B6923B9079B1B69012B40F3A780BD
:101D38000122079950463AF063FB0599079047F04E
:101D4800A7FB002840F39B8029F00043049A1B0D51
:101D58001B05002A79D0B3F1D66F6DD8B3F15C7F3B
:101D680046D84FF000084FF000092223CAF8003087
:101D780051E6002401255EE75A46189950463AF084
:101D88003FFB1890002885D13EE600BF48A104001B
:101D980002FCFFFFCB4640F0A3800E9AC9F3130361
:101DA800002A40D09C4A934258D1049B42467BB9B2
:101DB800B8F1FF3F40F08980984B99453FF424AE35
:101DC800974BDDF8108009EA030303F5801922E632
:101DD800934B09EA0303B3F1D46F16D918F1010143
:101DE8001BD18E4A91453FF40FAE03F5801980460A
:101DF8008C4B404649460022FEF766FB0B46804660
:101E0800894603437FF407AEAFE71E0D4FF0FF315D
:101E1800C6F16B06B1408845E7D0002C5ED014EAC5
:101E28000B0FE5D01EE0002B4AD1B8F1000F8BD084
:101E380064B314EA0B0F2BE0A3F580134FF0FF38BF
:101E48006FEA13596FEA0959D2E7A3F580134FF0E7
:101E5800FF386FEA13596FEA0959DCE59CB114EAB7
:101E6800090F0CD040464946049A46F0F3FFDDE9D5
:101E78000A0153EC102BFEF771F980468946049B42
:101E8800002BB5D1C7E515EA080FEAE718EA050FF0
:101E9800F5D0049A4046494646F0DCFFDDE90A01E0
:101EA80053EC102BFEF758F90022002304460D4688
:101EB800FEF772FD00287FF454AFA046A946DEE77E
:101EC800002CB6D115EA080FE2E724B114EA090F8D
:101ED8003FF4A1ADC6E718EA050FF9E72A42A0E7E3
:101EE8000599079847F0EFFA00224FF0804355EC28
:101EF800104B20462946FEF763FD00286DD00E9B47
:101F0800002B78D1B8F1000F56D1C9F31303002B79
:101F180059D10022444B20462946FEF747FD0028A8
:101F280058D1204629460022404BFEF7CDFA0446F8
:101F38000D4605F1004308940993394B0BEA030356
:101F48001293129A3A4B9A42DDE9086740F0A98049
:101F5800ABF1547949EC108B3AF056FBDDE90823D4
:101F680051EC100BFEF7B0FA42464B46FEF7F6F876
:101F78000B462B4980462F4A194091425CD90B9A4F
:101F8800264B9A4203D10A9B01333FF43DADDFF85B
:101F98008C904FF0FF38189950463AF063F806993C
:101FA80050463AF05FF8059950463AF05BF80799C1
:101FB80050463AF057F8D5E5B8F1010F03D1B9F119
:101FC800000F3FF4CEAE0024174D9FED0F7B8DED33
:101FD800087BB2E70024154DABE7144B2046294691
:101FE8000022FEF771FA0E9B04460D46002BA0D086
:101FF800CDE90845A1E79FED067B55EC174B8DED24
:10200800087B9AE7AFF30080000000000000F0BFF3
:10201800000000000000F03FFFFF0F00FFFFEF7F10
:102028000000F07F000050390000F03F0000E03F62
:102038000000E07FFFFF9F7C03F15479049B4E462C
:10204800002BA8D129F00043129A1B0D1B059A42B8
:10205800A1D120462946FEF707FEC9F31306FEF76D
:1020680005FA0B4602462946204646EA0806FEF7C8
:1020780073F80E9B04460D461E434BD02EA3D3E99E
:102088000023FEF793FC00287FF4C5AC20462946C0
:102098002BA3D3E90023FEF7A7FC00283FF47BAF6E
:1020A800B9E4049B13B3129BB3F1D46F1ED8204636
:1020B800294625A3D3E90023FEF782FC90B12946DF
:1020C8002046FEF79BFD012838BF0120FEF782F964
:1020D8000E9B04460D46D3B901F1004314901593A5
:1020E800DDE9146707F1D663129A9F1A9DED0A0B72
:1020F8003AF08AFA3046394653EC102BFEF7E4F9E9
:10210800DDE90A23FEF72AF88046894696E7CDE9F5
:102118001445E5E70EA3D3E90023FEF747FCBCE727
:10212800652A3FF443AB452A3FF440AB0123FFF750
:1021380079BB00BFAFF300809535A094FFFFDF3F68
:1021480035E5AF350000E03F0000C0FFFFFFDF418D
:102158009535A094FFFFCF3F2DE9F04F476A97B020
:102168008346209E08910C92129355EC104B8DEDEE
:10217800000B7FB9102038F04BFC0246CBF8240046
:1021880020B9A74BEA21A74838F012FCC0E901772B
:102198000760C760DBF82430196859B15A68012311
:1021A800584693404A608B6039F05CFFDBF8243076
:1021B80000221A602B1EB7BF23F000430023012220
:1021C8000193A8BF3360019F974BB8BF3260BB43F0
:1021D80019D142F20F73129A1360C7F31303234302
:1021E80000F0DB85219B53B9904B21E0904B039382
:1021F8000833219A1360039817B0BDE8F08F8B4B12
:1022080003930333F5E79DED007B0022002351EC97
:10221800170B8DED0A7BFEF7BFFB804650B10123FB
:10222800129A1360219B13B1824B219A1360824B3F
:102238000393E0E7C7F30A5614AA15A958469DED7B
:102248000A0B3AF055FA0290002E76D00B9BA6F2B4
:10225800FF36CDF84C80C3F3130343F07F53DDE919
:102268000A0143F4401319460022744BFDF774FF2A
:1022780065A3D3E90023FEF727F965A3D3E9002373
:10228800FDF76CFF04460D463046FEF7B3F862A32F
:10229800D3E90023FEF718F902460B4620462946E3
:1022A800FDF75CFF04460D46FEF7A8FB0022074633
:1022B800002320462946FEF779FB40B13846FEF751
:1022C80099F822462B46FEF767FB00B9013F162F07
:1022D80052D85B4B03EBC703DDE90A01D3E90023BE
:1022E800FEF764FB002849D0013F00231193149B9B
:1022F8009B1B5A1E4CBFC3F101030023079245BF25
:102308000693002306930793002F39DB079B10974A
:102318003B44079300230993089B092B66D8052B98
:10232800C5BF043B002401240893089B023B032BF0
:1023380067D8DFE803F02D3A3859DDE914631E4405
:1023480006F23243202BC9BFC3F14003C3F1200377
:102358009F4006F21243D8BF04FA03F006F1FF3695
:10236800C4BF24FA03F347EA0300FEF733F8012257
:10237800A1F1F873139276E70123B7E71190B6E756
:10238800069BDB1B06937B42099300231093C3E74C
:1023980000230D930C9B002B56DC012399461A460B
:1023A80004930C920CE00123F3E700230D930C9B9C
:1023B800FB1803F1010904934B46012BB8BF012315
:1023C800DBF824000021042202F114059D423FD9C4
:1023D8004160584639F006FE039000283BD1194B5E
:1023E80002464FF4D571CEE60123DFE7012400232E
:1023F8000D9408934FF0FF3300229946049312235B
:10240800CFE701230D93F5E761436F63A787D23FB9
:10241800B3C8608B288AC63FFB799F501344D33FCB
:1024280029E6050040E605000000F07F25E60500E6
:102438001CE60500F9E50500F8E505000000F83F91
:1024480098A10400B4E605000C9B99460493B7E7ED
:1024580001315200B8E7DBF82430B9F10E0F039AC6
:102468001A606FD8002C6DD0002F36DD07F00F02F0
:10247800A04BF8054FEA271403EBC20393ED007B4A
:102488008DED0E7B17D59C4B04F00F044FF003081D
:10249800D3E90823DDE90A01FEF740F9CDE9000197
:1024A800954D5CB9DDE90E23DDE90001FEF736F94B
:1024B800CDE900012BE04FF00208F1E7E10709D56B
:1024C80008F10108DDE90E01D5E90023FDF7FCFF5D
:1024D800CDE90E0164100835E3E700F007817C427E
:1024E800844B854D4FF0020804F00F02241103EBD2
:1024F800C203DDE90A01D3E90023FDF7E5FF002364
:10250800CDE90001002C40F0E580002BD0D1119BD3
:10251800DDE90045002B00F04C810022774B204676
:102528002946FEF743FA002800F04381B9F1000F6D
:1025380000F03F81049B002B00F3E480DDE90A34BE
:10254800CDE90034159B002B02DB0E2F40F34282AD
:102558000D9A002A40F06782099C0025DDF8188052
:10256800B8F1000F0DD0079B002B0ADD4345069AF2
:10257800A8BF4346D21AA8EB03080692079AD31AB3
:102588000793099B0BB30D9B002B00F0A682002C30
:1025980000F0A18229462246584639F0D7FE029A11
:1025A80001460546584639F027FE02990646584620
:1025B80039F058FD099B1B1B099300F09182099A79
:1025C8003146584639F0C2FE02900121584639F08A
:1025D800FDFD109B0446002B00F084821A4601463C
:1025E800584639F0B3FE089B0446012B03DC009BD8
:1025F800002B00F07C820026236904EB8303186912
:1026080046F0F7FEC0F120001096079B184410F022
:102618001F0000F09182C0F12003042B40F3818257
:10262800C0F11C00069B034480440693079B0344A7
:102638000793069B002B05DD1A460299584639F088
:10264800DFFE0290079B002B05DD21461A465846FF
:1026580039F0D6FE0446119B002B00F07682214605
:10266800029846F015FF002880F26F8200230A22A4
:102678000299584639F018FD0D9B7E1E0290002BDA
:1026880000F05C82002329460A22584639F00CFDE6
:10269800049B0546002B03DC089B022B00F35E829B
:1026A800B8F1000F05DD29464246584639F0A8FE24
:1026B8000546109B002B00F0D0826968584639F017
:1026C80091FC0746002840F07F820D4B024640F2FD
:1026D800EA2158E5E20706D508F10108D5E9002303
:1026E800FDF7F2FE0123641008350BE74FF00208EE
:1026F8000DE700BF98A1040070A104000000F03F9E
:10270800B4E6050020460022AC4B2946FDF7DCFE66
:102718007E1E08F10108049CCDE900014046FDF742
:1027280069FEDDE90023FDF7CFFEA54B0022FDF78A
:1027380015FDA1F15073CDE90E010F93002C3BD18B
:102748000022A04BDDE90001FDF706FD02460B461D
:10275800CDE90023DDE90E23FEF746F9002840F015
:102768005781DDE90E2101F10043DDE90001FEF7A3
:102778001DF900283FF4E2AE002425460C9BDDF845
:102788000CA0DE434FF000082146584639F06AFC99
:10279800002D00F0A980B8F1000F05D0A84503D09E
:1027A8004146584639F05EFC2946584639F05AFCED
:1027B8009AE03E464C46B1E7834B03EBC40353E92A
:1027C8000201039B1C440D9B002B4AD002460B467A
:1027D80000207E49FDF7A2FFDDE90E23FDF7BCFCD2
:1027E800DDF80CA0CDE90E01DDE90001FEF706F9E0
:1027F8000546FDF7FFFD024630350B46DDE90001D1
:10280800FDF7AAFC0AF8015B02460B46CDE9000178
:10281800DDE90E01FEF7E8F8002865D100206C49D3
:10282800DDE90023FDF798FC02460B46DDE90E01C1
:10283800FEF7DAF8002840F00D81A24500F0EA80A2
:1028480000225E4BDDE90E01FDF73EFE00225B4BE8
:10285800CDE90E01DDE90001FDF736FECDE9000105
:10286800C2E7DDE90E23FDF72FFEA046DDF80CA038
:10287800CDE90E01DDE90001FEF7C0F80546FDF7D8
:10288800B9FD024630350B46DDE90001FDF764FC71
:102898000AF8015B02460B46A245CDE900234FF03A
:1028A800000223D1494BDDE90E01FDF757FC024632
:1028B8000B46DDE90001FEF797F8002840F0CA80D2
:1028C80000204249DDE90E23FDF746FC02460B468F
:1028D800DDE90001FEF76AF870B1C24608F1FF3879
:1028E8001AF8013C302BF8D0374655E0334BFDF74A
:1028F800EBFDCDE90001BDE7DDE90A34CDE900349F
:10290800159B002BFFF628AE0E2F3FF725AE2E4B5A
:1029180003EBC70393ED007B0C9B002B8DED047B31
:1029280002DAB9F1000F64D0DDF80CA0DDE900454A
:10293800DDE9042320462946FDF7F0FEFEF75EF8A0
:102948000646FDF757FDDDE90423FDF7BDFD024608
:10295800204606F130040B462946FDF7FDFB0AF830
:10296800014B039C02460B46AAEB0404A14540F028
:102978008280FDF7F3FB04460D46DDE90423FEF7EC
:1029880033F8002865D120462946DDE90423FEF7FF
:1029980003F808B1F3075CD40299584639F062FB92
:1029A800002301378AF80030129B1F60219B002BFF
:1029B8003FF421ACC3F800A01DE400BF0000244090
:1029C80000001C400000144098A104000000E03FF3
:1029D8000000F03FA24B03EBC70393ED007B0C9B79
:1029E800002B8DED047B9FDAB9F1000F9CDC7FF49E
:1029F800C3AE00229B4BDDE90401FDF765FDDDE96F
:102A08000023FDF7E7FF044600287FF4B5AE3E46F5
:102A18002546B4E0DDE90A34CDE90034159B002BE6
:102A280001DB0E2FD6DD089A012A36DC139A82B311
:102A380003F23343099CDDF81880069A01215846B1
:102A48001A440692079A1A44079239F0BFFB0546C2
:102A580086E53E4653469A4613F8012D392A06D193
:102A6800039A9A42F7D13022039901360A701A78EC
:102A780001321A7038E700227B4BFDF725FD002252
:102A8800002304460D46FDF787FF00283FF450AFAA
:102A980082E7149BC3F13603CCE709F1FF34099BA5
:102AA800A34208DBB9F1000FA3EB04040EDBDDF849
:102AB80018804B46C1E7099B109AE31A0994DDF880
:102AC800188000241A444B461092B6E7069BA3EBE5
:102AD80009080023B1E7029E71E5099A029970E599
:102AE800029672E5089B012B17DC009BABB9019B92
:102AF800C3F313039BB9019B23F00046360D36053B
:102B080036B1069B012601330693079B01330793D1
:102B1800109B002B7FF470AD1096012075E5002600
:102B2800F6E73FF486AD1C33069A1A449844069299
:102B3800079A1A4407927CE50346F4E7049B002BA6
:102B48002BDC089B022B09DC27E0B9F1000F1DDC08
:102B5800089B022B1ADD3E46CDF81090049B002BF3
:102B68007FF40CAE21460522584639F09DFA0146FD
:102B78000446029846F08CFC00287FF7FFADDDF88C
:102B88000CA0312301360AF8013BFBE50D9B3E46BC
:102B9800CDF81090002B7FF483AD039F2146029857
:102BA80046F076F9039B00F13009049A07F8019B77
:102BB800FB1A9A4240F3CB8000230A220299584616
:102BC80039F072FA0290E9E72A6905F10C010C3034
:102BD8000232920045F064FF01223946584639F026
:102BE8000FFC039BA846054603F1010ADDE9032310
:102BF80013440793009B03F0010309930AF1FF3381
:102C080021460298049346F043F94146069000F1A4
:102C18003009029846F03CFC2A46214607465846A9
:102C280039F05AFCC268014602B3584639F01AFA1C
:102C3800002F3ADA01220299584639F0E1FB214681
:102C4800029046F025FC002803DC29D119F0010F79
:102C580026D0B9F1390F1DD132E02846C1E700BFAF
:102C680098A1040000001440000024400A90029833
:102C780046F00EFC0A990C90584639F0F3F90C9A74
:102C88005ABB089B53B9099B43B9B9F1390F17D0FF
:102C9800002F05DD069B03F1310901E0002F2ADA38
:102CA800DDF810A00AF8019B6EE5089B3B4304D1B0
:102CB800009B03F00103002BBCD0B9F1390F36D1CA
:102CC800049F392307F8013BBA46013F1AF8013C33
:102CD800392B5AD001333B7056E5002F06DB089B91
:102CE8003B4306D1009B03F0010313B9002AA1DC82
:102CF800D6E7002AE1DC079B57460AF8019C5345B2
:102D08002ED000230A220299584639F0CDF9A84559
:102D180002904FF000034FF00A02414658460BD18B
:102D280039F0C2F9804605460AF1010A66E7DDF87E
:102D380010A009F10109B5E739F0B6F9294680462E
:102D480000230A22584639F0AFF90546ECE7049B00
:102D58004FF00008002BCCBF1F460127039B1F44E0
:102D680001220299584639F04BFB2146029046F061
:102D78008FFB0028A8DC02D119F0010FA4D1BA46B4
:102D880017F8013D302BFAD0FEE4039BBB429BD1E0
:102D98003123039A01361370F6E4219B002B7FF44C
:102DA80025AA014BFFF744BA1CE6050010B500F050
:102DB80025F868B104460E4B1B6813F0070F01D1C4
:102DC800204610BD0B4A012109483BF01CFDF7E7DE
:102DD80002F08EFE04460028F2D0054B1B6813F063
:102DE800070FEDD0044A012101483BF00CFDE7E74D
:102DF800640D002060A2040084A2040090B585B090
:102E080000AF4E4B1B6803F00703022B71D96C46C9
:102E180000233B7202237B720122BA720322FA72E8
:102E28003B7304237B738CB0EC461CF110022DD04D
:102E38004FF01A0E2AB1BEF1040F02DD404BCCF858
:102E4800143000233B7202237B722AB1BEF1080FB3
:102E580002DD3C4BCCF818300123BB720323FB7214
:102E68002AB1BEF10C0F02DD374BCCF81C3002231F
:102E78003B7304237B73B2B1BEF1100F02DD334BF9
:102E8800CCF820300CF1240300210AE06FF0004E4A
:102E9800D0E701F11000384410F8080C03F8010BD2
:102EA80001310529F5D9BEF1190F37DD1A234AB1C9
:102EB8000521397100217971B9710321F971786897
:102EC800CCF8100000216FF300016FF341016FF39C
:102ED80082016FF3C501032060F38811C3F30A036D
:102EE80063F353216FF31F51002314480BF060FC68
:102EF800A546124B1B6803F00703022B11D8144890
:102F08000BF088FA044628B90C4B1B6803F007033A
:102F1800022B0CD820461437BD4690BD6FF01B031A
:102F2800C5E70C4A032105483BF06DFCE7E70A4A70
:102F3800032102483BF067FCECE700BF1C0D0020B2
:102F4800BCA2040054A3040008A304007CA304004A
:102F5800A0A3040010A304002CA30400014B1870C4
:102F6800704700BF040C002008B10068704710B516
:102F7800074C40F24A232246064907483AF05CFECD
:102F880006483AF059FE40F24A21204607F006FB6F
:102F9800A4A30400D4A30400E8A3040008A4040024
:102FA80010B5FFF7E1FF0378012B05D0144A12682A
:102FB80012F0060F1ED110BD0446114B1B6803F01A
:102FC8000703022B10D8A06804F0DCFA0346002897
:102FD800F1D00B4A126812F0070FECD0094A012110
:102FE80007483BF01AFCE6E7074A032104483BF090
:102FF8000AFCE8E7054A022101483BF00EFCDAE743
:10300800500D00202CA404001CA404004CA40400AF
:1030180010B541F69A1200231D491E4817F096F97B
:1030280068B104461C4B1B6813F0070F01D12046FA
:1030380010BD1A4A012118483BF0E5FBF7E741F6B5
:103048009A1200231649174817F080F9044650B120
:10305800114B1B6813F0070FE9D0134A01210E48E2
:103068003BF0D1FBE3E741F69A1200230F491048E1
:1030780017F06CF904460028D9D0074B1B6813F0E9
:10308800070FD4D00B4A012103483BF0BCFBCEE725
:10309800281300205C9E0400500D002074A4040036
:1030A80030130020849E040090A404002013002004
:1030B800489E0400ACA4040010B588B00022002388
:1030C800CDE906230023049305220392029301937A
:1030D80000932A4B4FF4006229492A4823F0D8FF6D
:1030E800294B1860294923F09DFD70B10446284BEF
:1030F8001B6813F0070F02D1204608B010BD254AFF
:10310800012123483BF07FFBF6E700220023CDE9AD
:10311800062300230493052203920293019300934C
:103128001D4B4FF400621D491D4823F0B1FF1D4B94
:1031380018601D4923F076FD044650B1144B1B68F6
:1031480013F0070FD8D0194A012111483BF05BFB57
:10315800D2E741F69A1200231549164817F0F6F8F7
:1031680004460028C8D00A4B1B6813F0070FC3D0C9
:10317800114A012106483BF046FBBDE7D532000065
:10318800A8EC00205014002018320020CCA4040021
:10319800500D0020DCA40400C5310000A8E4002084
:1031A800481300201432002000A5040014A50400D0
:1031B80038130020989E04003CA5040000B589B08F
:1031C8000CE0852200923C4A01213C483BF030FB50
:1031D80016E000F077FD3A4B1B7843BB4FF0FF3207
:1031E8004FF0FF33CDE9002303AA07A9354816F0AD
:1031F800FDFF58B10346314A126812F0070FE0D1BB
:10320800404080F311884FF0030002DF9DF80C3036
:10321800032BDED0042B29D0284A126812F0060F9F
:10322800DCD0294A022125483BF0F7FAD6E700F01E
:103238001BFE0020FFF792FE022006F095FA0346D7
:103248000028CBD01D4A126812F0070F06D1404063
:1032580080F311884FF0030002DFBFE79722009246
:10326800154A012115483BF0E3FAF0E700F032FD7A
:10327800134B1B78012BB1D00120FFF76FFE01F033
:103288000BF8022006F038FA03460028A6D00B4AAD
:10329800126812F0070F06D1404080F311884FF0F2
:1032A800030002DF9AE7A8220092034A012103489B
:1032B8003BF0BEFAF0E700BF60A50400500D002007
:1032C800040C00203013002084A5040000B587B04A
:1032D80055E03F220092534A012153483BF0A8FA97
:1032E8005CE0442200924F4A01214F483BF0A0FA8B
:1032F80068E04D4B1B6813F0060F02D107B05DF86C
:1033080004FB4A4A022148483BF07DFAF6E7484B5D
:103318001B7863B1012B19D0434A126812F0060FCB
:103328002DD0444A022140483BF077FA27E004F0C8
:1033380085F9034618B33C4A126812F0060F1ED0EE
:103348003D4A022138483BF068FA18E0002004F0B2
:1033580019F9034698B1344A126812F0060F0ED0D4
:10336800364A022130483BF058FA08E0304B1B78C7
:10337800002B47D02C4B1B6813F0060F3CD14FF0A5
:10338800FF324FF0FF3305A92D4816F0AFFE58B1B4
:103398000346254A126812F0070F9AD1404080F37D
:1033A80011884FF0030002DF40F6CD42002303A945
:1033B800059816F045FE034650B11B4A126812F0F4
:1033C800070F8ED1404080F311884FF0030002DFD1
:1033D8009DF81030012B8CD1039B042B97D0062B22
:1033E800C4D0114A126812F0060FC8D0154A02213B
:1033F8000D483BF012FAC2E7134A02210A483BF093
:1034080002FABCE700F0A6FC03460028B7D0064A3B
:10341800126812F0060FB2D00C4A022102483BF0A3
:10342800FCF9ACE760A50400500D0020ACA5040031
:10343800040C0020E4A50400C4A504002CA4040086
:103448002813002038A60400FCA5040014A60400D4
:1034580010B584B0019002918DF80C20164B1B78A2
:103468000BB104B010BD04AB13E9070004F02AF94E
:10347800044658B1114B1B68834207D010F18C0FDA
:1034880007D00F4B1B6813F0060F0DD10B4B1C60B8
:10349800E7E70B4B1B6813F0060FF7D0094A022128
:1034A80007483BF0B0F9F1E70346074A0221044810
:1034B8003BF0B3F9EAE700BF040C0020103200200B
:1034C800500D00205CA6040078A60400F0B587B073
:1034D80002AF07F01DFA58B10346A14A126812F06C
:1034E800070F48D1404080F311884FF0030002DFF6
:1034F800FFF75CFC034650B1994A126812F0070FB7
:1035080042D1404080F311884FF0030002DF0023CE
:10351800FB60BB60FFF7D0FD054600286FD0904BDD
:103528001B6813F0070F5FD06E4600233B71022320
:103538007B7188B002AC14F110022ED00E201AB1A3
:10354800042801DD874B636100233B7002237B70F5
:1035580032B3082801DD844BA36104F11C03002168
:1035680001291DD801F1100CBC441CF810CC03F83B
:1035780001CB0131F4E74FF4A27200927B4A01219A
:1035880077483BF055F9ADE740F247120092774A89
:10359800012173483BF04CF9B3E76FF00040CEE7E8
:1035A8000D285DDD0E2342B10321397100217971A7
:1035B800B9710121F9717868206100216FF3000168
:1035C8006FF341016FF382016FF3C501012060F3CE
:1035D8008811C3F30A0363F353216FF31F510023C8
:1035E8005F480BF0E5F8B5465D4B1B6813F0070F15
:1035F80039D1404080F311884FF0030002DFFFF714
:1036080007FD054600286AD0554B1B6813F0070FC5
:103618005AD06E4600233B7102237B7188B002ACFE
:1036280014F1100229D00E201AB1042801DD4D4BE7
:10363800636100233B7002237B700AB3082801DD15
:103648004B4BA36104F11C030021012918D801F197
:10365800100CBC441CF810CC03F801CB0131F4E782
:103668006FF01B039FE740F24D1300932B463F4A30
:1036780001213B483BF0DCF8BBE76FF00040D3E7A3
:103688000D285DDD0E2342B10321397100217971C6
:10369800B9710121F9717868206100216FF3000187
:1036A8006FF341016FF382016FF3C501012060F3ED
:1036B8008811C3F30A0363F353216FF31F510023E7
:1036C80027480BF075F8B546254B1B6813F0070F14
:1036D80039D1404080F311884FF0030002DF04F035
:1036E80011F80546002876D01D4B1B6813F0070F0C
:1036F80066D06E4600233B7102237B7188B002AC12
:1037080014F1100229D00E201AB1042801DD154B3E
:10371800636100233B7002237B706AB3082801DDD4
:10372800144BA36104F11C030021012924D801F1E1
:10373800100CBC441CF810CC03F801CB0131F4E7A1
:103748006FF01B039FE74FF4A87300932B46074ABB
:10375800012103483BF06CF8BBE76FF00040D3E76A
:10376800500D0020ACB40400A4A6040060A5040019
:10377800D0A60400FCA604000D2862DD0E2342B189
:103788000321397100217971B9710121F9717868C2
:10379800206100216FF300016FF341016FF3820193
:1037A8006FF3C501012060F38811C3F30A0363F3C3
:1037B80053216FF31F51002389480AF0F9FFB546DA
:1037C800874B1B6813F0070F3ED1404080F31188E8
:1037D8004FF0030002DF082014F0CAFF00228149DD
:1037E80000F004FB054600286AD07D4B1B6813F0E7
:1037F800070F5AD06E4600233B7102237B7188B0B5
:1038080002AC14F1100229D00E201AB1042801DDEF
:10381800754B636100233B7002237B700AB3082851
:1038280001DD724BA36104F11C030021012918D8A2
:1038380001F1100CBC441CF810CC03F801CB013189
:10384800F4E76FF01B039AE740F2531300932B46FB
:10385800674A012162483AF0EBFFB6E76FF0004093
:10386800D3E70D286CDD0E2342B103213971002105
:103878007971B9710121F9717868206100216FF3BC
:1038880000016FF341016FF382016FF3C50101205D
:1038980060F38811C3F30A0363F353216FF31F51D5
:1038A80000234F480AF084FFB5464D4B1B6813F0C0
:1038B800070F48D1404080F311884FF0030002DF22
:1038C8004C4D4D4C07F108032A4607F10C012046E0
:1038D80003F048FEBB682A68F96820680024009451
:1038E80002F03CFF0546002869D03D4B1B6813F0E9
:1038F800070F59D06E463C7102237B7188B002AC29
:1039080014F1100229D00E201AB1042801DD364B1B
:10391800636100233B7002237B700AB3082801DD32
:10392800364BA36104F11C030021012918D801F1C9
:10393800100CBC441CF810CC03F801CB0131F4E79F
:103948006FF01B0390E74FF4AC7300932B46284AA3
:10395800012123483AF06CFFACE76FF00040D3E751
:103968000D2830DD0E2342B1032139710021797110
:10397800B9710121F9717868206100216FF30001A4
:103988006FF341016FF382016FF3C501012060F30A
:103998008811C3F30A0363F353216FF31F51002304
:1039A8000F480AF005FFB5460D4B1B6813F0070FCB
:1039B8000CD1404080F311884FF0030002DF002053
:1039C8001437BD46F0BD6FF01B03CCE740F25D1322
:1039D80000932B46064A012101483AF029FFE8E7FF
:1039E800500D002000770100ACB404001CA70400AF
:1039F80060A50400083200200C32002040A7040013
:103A0800034B01221A700221597619761A747047ED
:103A1800903200202DE9F041ADF5386D02AF002657
:103A2800C7F86C6BAEE0404080F311884FF003009C
:103A380002DF04EB440007F6783303EB8405954B6B
:103A48001A6855F8341C07F5717303EB801045F0BC
:103A580027F855F8341C90481BF0E8F90134092C74
:103A68001DDC4FF0FF324FF0FF33CDE90023894AC8
:103A780007F6443303EB840187481BF0A3F9034698
:103A88000028D6D0854A126812F0070FCBD08D22B5
:103A98000092834A012181483AF0CAFEC3E7814B6C
:103AA8001B7C002B5FD0804B1B68002B74D107F662
:103AB8006C337E4A4FF4F06107F5717001F0ACFC8D
:103AC800044600284FD0754B1B6813F0070F3FD0F2
:103AD8006D4600233B7102237B7188B002A911F166
:103AE800100200F097804FF00E0C22B1BCF1040FC9
:103AF80001DD6F4B4B6100233B7002237B70002A72
:103B080040F08B80BCF10D0F40F398800E2342B13A
:103B18000320387100207871B8710120F871786835
:103B280008616FF300086FF341086FF382086FF3C1
:103B3800C508012161F38818C3F30A0363F3532806
:103B48006FF31F580023414654480AF031FEAD4632
:103B5800524B1B6813F0070F73D1404080F3118854
:103B68004FF0030002DFB6F57A7F73D001364D4B74
:103B78001B7C3BB14B4B5A7ED7F86C1B4B4B1868E0
:103B8800FFF766FC4FF0FF324FF0FF330121494841
:103B980027F0A2F8002462E7474A0092474A4FF408
:103BA8007071381D1AF030FF034650B13B4A126855
:103BB80012F0070F1ED1404080F311884FF0030028
:103BC80002DF009707F5717310224FF47071381DEA
:103BD80040F060FA034600283FF469AF2F4A1268A4
:103BE80012F0070F0ED1404080F311884FF0030008
:103BF80002DF5CE79C220092294A012127483AF01B
:103C080017FED8E7A1220092254A012123483AF05D
:103C18000FFEE8E76FF0004C67E7BCF1080F01DD25
:103C2800274B8B6101F11C03002004E017F800E02A
:103C380003F801EB01300128F8D963E76FF01B03A3
:103C480065E7A72300932346154A012113483AF054
:103C5800EFFD82E707F5376207F674310E481BF06F
:103C68000DF90646002882D00C4B1B6813F0070F8D
:103C780007D1404080F311884FF0030002DF00268F
:103C880075E7AE2300930346054A012103483AF03D
:103C9800CFFDEEE724320020C40100208C0C002068
:103CA80060A50400903200202C3200201C32002035
:103CB800ACB40400B00100202032002030320020D3
:103CC80064A7040008B50021014827F07DF908BD64
:103CD800B432002008B5024844F08BFE08BD00BF8E
:103CE800B432002010B9174B1860704700B583B084
:103CF800B7EE000A4BF6803382B2124912481AF026
:103D0800B7FE034650B1114A126812F0070F0DD1E1
:103D1800404080F311884FF0030002DF094B1B6815
:103D2800602B0BD8002003B05DF804FBD52200926D
:103D3800074A012105483AF07BFDE9E76FF00B00DF
:103D4800F1E700BF2C320020303200208C0C00201C
:103D580060A5040010B5204B1B68A3B91E4B4FF497
:103D68007A721A601C4B1B68F3B11C4A126802F085
:103D78000702022A12D8184B1868FFF7B3FF044647
:103D8800F0B9204610BDB3F57A6F03D3124B002269
:103D98001A60E7E75B00104A1360E3E7104A032163
:103DA8000E483AF03AFDE6E70C4B1B6803F00703B0
:103DB800022BE0D90B4A032108483AF024FDDAE740
:103DC800064B1B6813F0070FDBD0074A0121034895
:103DD8003AF019FDD5E700BF283200208C0C0020EE
:103DE80074A704008CA704009CA7040070B50546BE
:103DF8000E46144638F0CDFE60B1184BDD61204602
:103E080038F0C7FEB8B1154BDC602EB3134B5E61BA
:103E1800002022E0002DF2D0114B1B6813F0070F91
:103E280002D16FF0150018E02B460E4A01210C480C
:103E38003AF0F3FCF5E7002CE7D0094B1B6813F0C8
:103E4800070F02D16FF0150007E02346054A01214C
:103E580003483AF0E2FCF5E7002070BD90320020FC
:103E68008C0C0020BCA70400F0B58BB008AFFFF79E
:103E7800C7FD9C4B93F86430002B4AD09A4B93F8BB
:103E88006430002B00F0B780984CEC4604F1100E1B
:103E9800BEE80F00ACE80F00DEF80030CCF80030C8
:103EA80094E80F0001F022FC0546002800F05B8131
:103EB8008F4B1B6813F0070F00F04A816E460023F2
:103EC8003B7102237B7188B0344616F1100200F072
:103ED80005810E201AB1042801DD864B6361002399
:103EE8003B7002237B70002A00F00E81082801DD58
:103EF800814BA36104F11C030021012900F2048114
:103F080001F1080CBC441CF808CC03F801CB0131C2
:103F1800F3E774481BF034F805460028AED0744B1C
:103F28001B6813F0070F4DD06E4600233B71022328
:103F38007B7188B0344616F1100212D00E201AB1E7
:103F4800042801DD6B4B636100233B7002237B7007
:103F5800A2B1082801DD694BA36104F11C0300210B
:103F68000AE06FF00040EAE701F1080CBC441CF8D5
:103F780008CC03F801CB01310129F5D90D282DDD35
:103F88000E2342B10321397100217971B9710121E0
:103F9800F9717868206100216FF300016FF3410126
:103FA8006FF382016FF3C501012060F38811C3F339
:103FB8000A0363F353216FF31F5100234C480AF09F
:103FC800F7FBB5464A4B1B6813F0070F09D1404071
:103FD80080F311884FF0030002DF4FE76FF01B03F7
:103FE800CFE74FF4C07300932B46454A0121404860
:103FF8003AF01EFCEBE73C481AF0C2FF05460028E1
:104008003FF442AF3A4B1B6813F0070F4DD06E4692
:1040180000233B7102237B7188B0344616F11002ED
:1040280012D00E201AB1042801DD324B636100233F
:104038003B7002237B70A2B1082801DD314BA361DC
:1040480004F11C0300210AE06FF00040EAE701F1E7
:10405800080CBC441CF808CC03F801CB0131012939
:10406800F5D90D282DDD0E2342B103213971002128
:104078007971B9710121F9717868206100216FF3B4
:1040880000016FF341016FF382016FF3C501012055
:1040980060F38811C3F30A0363F353216FF31F51CD
:1040A800002313480AF084FBB546114B1B6813F034
:1040B800070F09D1404080F311884FF0030002DF59
:1040C800E2E66FF01B03CFE740F2851300932B461F
:1040D8000B4A012106483AF0ABFBEBE76FF00040D2
:1040E800F8E600BF2C020020C40100209032002016
:1040F8008C0C0020ACB4040014A80400DCA7040055
:1041080060A50400F8A704000D2857DD0E2342B16E
:104118000321397100217971B9710121F971786828
:10412800206100216FF300016FF341016FF38201F9
:104138006FF3C501012060F38811C3F30A0363F329
:1041480053216FF31F51002343480AF031FBB54652
:10415800414B1B6813F0070F33D1404080F311889F
:104168004FF0030002DF3D4B012283F820201B7C27
:1041780013B13B4B1B6873B304F044FF034650B1C3
:10418800354A126812F0070F54D1404080F3118865
:104198004FF0030002DF334801F090F8034650B1B6
:1041A8002D4A126812F0070F4DD1404080F3118854
:1041B8004FF0030002DF0C37BD46F0BD6FF01B0364
:1041C800A5E740F2891300932B46274A012122488C
:1041D8003AF02EFBC1E700220023CDE90623002395
:1041E8000493032203920293019300931F4B42F618
:1041F800F8221F491F4822F04BFF194B18601E492F
:1042080022F010FD03460028B6D0134A126812F0B7
:10421800070F06D1404080F311884FF0030002DFFA
:10422800AAE740F2931200920F4A01210A483AF095
:10423800FFFAEFE740F29B1200920B4A0121064871
:104248003AF0F6FAA1E74FF4CF720092064A01213C
:1042580001483AF0EDFAA8E78C0C002090320020D3
:10426800C4320020C401002060A504001D3A0000EB
:10427800A8F40020581500202CA8040010B5044606
:10428800FFF7F2FD034A082120463AF0EFFD00202F
:1042980010BD00BF34A80400F0B589B006AF654B67
:1042A80093F820305BB9644B1B6813F0060F00F0DD
:1042B800B180624A022160483AF0A5FAAAE004F007
:1042C800D7FE034650B15C4A126812F0070F53D16B
:1042D800404080F311884FF0030002DF01F030F80E
:1042E800034650B1544A126812F0070F4DD14040AE
:1042F80080F311884FF0030002DF4E4CEC4604F1C6
:10430800100EBEE80F00ACE80F00DEF80030CCF865
:10431800003094E80F0001F075F9054600286FD0C9
:10432800454B1B6813F0070F5FD06E4600233B71A7
:1043380002237B7188B006AC14F110022ED00E2037
:104348001AB1042801DD3E4B636100233B70022350
:104358007B7032B3082801DD3A4BA36104F11C03DA
:10436800002101291DD801F1080CBC441CF808CC17
:1043780003F801CB0131F4E740F2B1120092324A5E
:1043880001212D483AF054FAA2E74FF4DA7200926C
:104398002D4A012128483AF04BFAA8E76FF000406F
:1043A800CEE70D2839DD0E2342B1032139710021F2
:1043B8007971B9710121F9717868206100216FF371
:1043C80000016FF341016FF382016FF3C501012012
:1043D80060F38811C3F30A0363F353216FF31F518A
:1043E800002315480AF0E4F9B546134B1B6813F08F
:1043F800070F15D1404080F311884FF0030002DF0A
:104408000C4B002283F8202010481AF06FFD10484A
:104418001AF06CFD0C37BD46F0BD6FF01B03C3E707
:104428004FF4DC7300932B46074A012102483AF007
:10443800FFF9DFE7903200208C0C00204CA8040024
:10444800ACB4040068A8040060A50400C4010020FE
:104458002C02002010B50446FFF71EFF034A08216E
:1044680020463AF003FD002010BD00BF80A80400DC
:1044780010B584B000220023CDE9002302AA03A9C5
:104488000C481AF09FFC38B90446039909481AF0F9
:10449800CDFC204604B010BD074B1B6813F0060F77
:1044A80002D16FF08B04F4E7044A022102483AF083
:1044B800AAF9F6E7C40100208C0C002098A8040093
:1044C80010B500F057FF70B10446114B1B6813F08C
:1044D800070F01D1204610BD03460E4A01210C48A2
:1044E8003AF09BF9F6E704F0D3FD044658B1084BBF
:1044F8001B6813F0070FEDD00346074A0121044853
:104508003AF08BF9E6E7054844F06EFAE2E700BFB7
:104518008C0C0020B8A80400E0A80400B4320020E5
:10452800074B984203D0074B984204D070470022AB
:1045380083F880217047C03B002283F88121F5E78A
:1045480014520020D4520020034B002283F880210B
:1045580083F88121704700BF1452002008B500215C
:10456800034B19704FF47072024844F0D3FA08BD37
:1045780082E400209C53002008B5024823F030FF55
:1045880008BD00BF9402002008B10068704710B54C
:10459800074C40F24A2322460649074839F04CFBAB
:1045A800064839F049FB40F24A21204605F0F6FF5B
:1045B800A4A30400D4A30400E8A3040008A40400EE
:1045C80008B5401A63EB0303144A904273F1FF32B3
:1045D80002DA013843F1000311490A6801320A601E
:1045E800B0F5FA7043F1FF3341F28932904273F12A
:1045F800000300D208BDFFF73BFF18B9084B0022A3
:104608001A60F7E7074B1B6813F0060FF2D0064A4B
:10461800022104483AF0F7F8ECE700BF01000080F7
:1046280010520020840C0020C0A9040008B5FFF730
:10463800ABFF02684168007A0B4B5B7843B10B4BC8
:10464800C3F8F42B48B142B11046FFF7B9FF04E0B4
:10465800074B1B6813F0060F00D108BD054A02215D
:1046680003483AF0D0F8F8E75C5700205CA7002030
:10467800840C0020E0A9040090B583B000AF394B4A
:1046880093F8003C834229D0364B83F8000C364B14
:104698001B6803F00703022B5DD9344B53F8201035
:1046A8006C4600233B7102237B7188B0EC461CF1F9
:1046B80010021ED00E2022B1042802DD2C4BCCF8AB
:1046C800143000233B7002237B70FAB1082801DD07
:1046D800CCF818100CF11C03002115E0224B1B68C4
:1046E80013F0060F37D0234A02211F483AF08BF8FF
:1046F80031E06FF00040DEE701F1080EBE441EF81D
:1047080008EC03F801EB01310129F5D90D2825DD65
:104718000E234AB10321397100217971B971012140
:10472800F9717868CCF8100000216FF300016FF37D
:1047380041016FF382016FF3C501032060F3881113
:10474800C3F30A0363F353216FF31F510023064891
:104758000AF02EF8A5460C37BD4690BD6FF01B0336
:10476800D7E700BF5CA70020840C002024B0040019
:104778004CAA040014AA040038B54F4B93F8003C27
:10478800032B07D8DFE803F0020E416C4A4BD3F83D
:10479800F43B03B938BD484AC2F8043C0120FFF78E
:1047A8006BFFF7E7444AB2F8023C01339BB2A2F828
:1047B800023C632BEED90023A2F8023CD2F8043C59
:1047C800D2F8F41B5B1A03F5C333A0333B4901FB52
:1047D80003F33B4981FB0301DB17C3EBA11303F58B
:1047E8001B40AE30C2F8080C03F6CC3341F2987285
:1047F800934206D880B238F0FEF90220FFF73CFF5A
:10480800C8E70020FFF738FFC4E72B4AB2F8023C9C
:1048180001339BB2A2F8023C632BBBD91546002397
:10482800A2F8023C0146D2F8F40B38F0C5F900EBC7
:10483800D0704410214B04FB03F3214A82FB03127E
:10484800DB17C3EBA213D5F8080C184480B238F074
:10485800D2F90F341E2C9DD80320FFF70DFF99E7DE
:10486800154AB2F8023C01339BB2A2F8023C632B12
:1048780090D915460023A2F8023C0146D2F8F40B61
:1048880038F09AF900EBD07044100C4B04FB03F39A
:104898000B4A82FB0312DB17C3EBA213D5F8080CF3
:1048A800184480B238F0A7F92034402C7FF672AF54
:1048B8000020FFF7E1FE6DE75CA7002018FCFFFF72
:1048C800019D7F31464B93F8103C834200F086806F
:1048D800B0B584B002AF0446414B83F8100C414B8D
:1048E8001B6803F00703022B53D93F4B53F82010E2
:1048F8006D4600233B7102237B7188B00DF1080CD3
:104908001CF1100213D00E2022B1042802DD374B0F
:10491800CCF8143000233B7002237B70A2B1082826
:1049280001DDCCF818100CF11C0300210AE06FF02F
:104938000040E9E701F1080EBE441EF808EC03F850
:1049480001EB01310129F5D90D2836DD0E234AB1D5
:104958000321397100217971B9710121F9717868E0
:10496800CCF8100000216FF300016FF341016FF3E1
:1049780082016FF3C501032060F38811C3F30A03B2
:1049880063F353216FF31F510023164809F010FFFA
:10499800AD46032C14D0032038F00BFA50B1114B5C
:1049A8001B6813F0070F0FD1404080F311884FF0B8
:1049B800030002DF0837BD46B0BD6FF01B03C6E732
:1049C800032004F099FEE9E74FF4B573009303461A
:1049D800074A0121034839F02BFFE5E7704700BF7C
:1049E8005CA70020840C002014B0040060AA040016
:1049F80060A50400F0B589B002AF00237B613B617C
:104A08003A1D3946B14B98681AF038FA3B681BB919
:104A18007B680BB9002861D0AD4B1B6813F0070FFA
:104A280051D06C4600233B7302237B7388B00DF191
:104A3800080C1CF1100214D00E2022B1042802DD4B
:104A4800A44BCCF8143000233B7202237B72AAB12A
:104A5800082802DDA04BCCF818300CF11C0300210B
:104A68000AE06FF00040E8E701F118053D4415F849
:104A7800105C03F8015B01310129F5D90D2864DDCB
:104A88000E234AB10321397300217973B9730121C7
:104A9800F973F868CCF8100000216FF300016FF388
:104AA80041016FF382016FF3C501012060F38811A2
:104AB800C3F30A0363F353216FF31F5100238448A0
:104AC80009F076FEA546824B1B6813F0070F3FD10D
:104AD800404080F311884FF0030002DF00220023DA
:104AE80007F11401794880681AF0D6F805460028BD
:104AF8006BD0774B1B6813F0070F5BD06E46002313
:104B08003B7302237B7388B002AC14F110022AD0E5
:104B18000E201AB1042801DD6E4B636100233B723D
:104B280002237B7212B3082801DD6C4BA36104F1E8
:104B38001C030021012919D801F1180CBC441CF8E8
:104B480010CC03F801CB0131F4E76FF01B0398E7B1
:104B580040F2033300936FF00B03614A01215C4874
:104B680039F066FEB4E76FF00040D2E70D2863DD48
:104B78000E2342B10321397300217973B9730121DE
:104B8800F973F868206100216FF300016FF34101A8
:104B98006FF382016FF3C501012060F38811C3F33D
:104BA8000A0363F353216FF31F510023484809F0A8
:104BB800FFFDB546464B1B6813F0070F3FD1404039
:104BC80080F311884FF0030002DF0022002307F171
:104BD80010013E4880681AF05FF8054600286AD040
:104BE8003B4B1B6813F0070F5AD06E4600233B73EC
:104BF80002237B7388B002AC14F1100229D00E2076
:104C08001AB1042801DD334B636100233B72022390
:104C18007B720AB3082801DD304BA36104F11C0341
:104C28000021012918D801F1180CBC441CF810CC3B
:104C380003F801CB0131F4E76FF01B0399E74FF458
:104C4800427300932B46264A0121214839F0F0FD92
:104C5800B5E76FF00040D3E70D2843DD0E2342B1DE
:104C68000321397300217973B9730121F973F86845
:104C7800206100216FF300016FF341016FF382019E
:104C88006FF3C501012060F38811C3F30A0363F3CE
:104C980053216FF31F5100230D4809F089FDB546D4
:104CA8000B4B1B6813F0070F1FD1404080F311888E
:104CB8004FF0030002DF7969002003F02BFB39690C
:104CC800002003F0E3FA1C37BD46F0BD5C57002016
:104CD800840C0020ACB4040074AA040088AA040060
:104CE80060A504006FF01B03B9E740F20B33009393
:104CF8002B46034A0121034839F09AFDD5E700BF46
:104D080060A50400840C0020F0B587B002AF05460A
:104D180079601046FFF704FCAE4A02F5A041B1F8ED
:104D28000E3A03F5B453023302EB83029368EB1A8D
:104D3800C1F8FC3B7B68002B6AD0C022391DA54B0B
:104D4800986819F0D3FF0446002861D0A24B1B686D
:104D580013F0070F51D06E4600233B7302237B7379
:104D680088B00DF1080C1CF1100214D00E2022B1ED
:104D7800042802DD994BCCF8143000233B7202233F
:104D88007B72AAB1082802DD954BCCF818300CF1DB
:104D98001C0300210AE06FF00040E8E701F1100E63
:104DA800BE441EF808EC03F801EB01310129F5D9DE
:104DB8000D2872DD0E234AB103213973002179735E
:104DC800B9730121F973F868CCF8100000216FF36A
:104DD80000016FF341016FF382016FF3C5010120F8
:104DE80060F38811C3F30A0363F353216FF31F5170
:104DF8000023794809F0DCFCB546774B1B6813F0B3
:104E0800070F4DD1404080F311884FF0030002DFB7
:104E18000022002373496F48806819F03DFF04465B
:104E280020B9714B1B6813F10C0F43D014F10C0F10
:104E38004ED0002C00F0BF80674B1B6813F0070FA3
:104E480000F0AE806E4600233B7302237B7388B06C
:104E58000DF1080C1CF110027AD00E2022B10428A2
:104E680002DD5E4BCCF8143000233B7202237B72C8
:104E7800002A70D0082802DD5C4BCCF818300CF101
:104E88001C030021012966D801F1100EBE441EF84A
:104E980008EC03F801EB0131F4E76FF01B038AE734
:104EA8004FF42F7300932346514A01214A4839F0A1
:104EB800BFFCA7E7484B1B6813F0060F02D14A4B0B
:104EC8001C60B3E74B4A0221434839F09CFCF6E7E3
:104ED800454B1B689C4206D03F4B1B6813F0060FDE
:104EE80027D1414B1C603B4B986800220023CDE939
:104EF800002307F10C0207F1080119F063FF0346CC
:104F080050B1354A126812F0070F18D1404080F3AB
:104F180011884FF0030002DF2E4CB968A06819F021
:104F280085FF002200232F49A06819F0B5FE04462A
:104F38007FE7314A0221284839F065FCD1E740F281
:104F4800D32200922A4A0121234839F071FCDDE777
:104F58006FF0004082E70D2839DD0E234AB10321A6
:104F6800397300217973B9730121F973F868CCF8A2
:104F7800100000216FF300016FF341016FF382010C
:104F88006FF3C501012060F38811C3F30A0363F3CB
:104F980053216FF31F5100230F4809F009FCB54650
:104FA8000D4B1B6813F0070F2AD1404080F311887E
:104FB8004FF0030002DF0B4B1968002003F066F97D
:104FC8000E4B93F80C3C2BBB1437BD46F0BD6FF06D
:104FD8001B03C3E75C570020840C0020ACB404001A
:104FE800A0AA04000C5200200852002088AA04003D
:104FF80060A50400B8AA0400D4AA04005CA7002095
:1050080040F2DB2300932346044A0121044839F087
:105018000FFCCAE72846FFF7AFFBD5E760A50400F9
:10502800840C002038B505460024064B83F81C4C38
:105038002046FFF747FC044A0821284639F016FFA6
:10504800204638BD5CA70020F0AA040008B5094B2B
:1050580093F80C3C4BB1074B012283F81C2C064AF1
:10506800082139F003FF002008BD044A082139F05F
:10507800FDFEF8E75CA7002014AB040038AB040081
:1050880010B504460B4B93F81C3C2BB10A4A082177
:1050980039F0ECFE002010BD064B002083F80C0C04
:1050A800A3F8020CFFF7E8FA044A0821204639F071
:1050B800DDFEEFE75CA7002068AB04009CAB0400B2
:1050C80008B5054B012283F80C2C044A082139F055
:1050D800CDFE002008BD00BF5CA70020C4AB0400C3
:1050E80030B583B0144B1B781BBB02460C464BF6FD
:1050F80080331249124819F0BBFC054618B92CB97F
:105108000D4B01221A70284603B030BDE0034FF45E
:105118007A72002300F2E7300021FBF737FD0246E0
:105128000B4600200021CDE90001064825F07EFA53
:10513800E6E76FF00F05E6E782E4002098530020C9
:105148009C530020680E002008B5034843F0B8FBC4
:10515800024823F045F908BD680E0020940200209B
:1051680010B50446FFF7F0FF034A0821204639F03E
:105178007DFE002010BD00BFECAB04002DE9F0431C
:105188002DED028B85B00746042957D11646506885
:105198000378424AD35C13F0040F56D0B3681B78E7
:1051A8003E4AD35C13F0040F57D00A22002136F090
:1051B800D5FA04461FFA80F80A220021B06836F0B2
:1051C800CDFA05461FFA80F90021F06836F072F929
:1051D800B0EE408AB5EEC00AF1EE10FA45D9F7EE06
:1051E800007AB4EEE70AF1EE10FA3EDCA4B2AEB2F1
:1051F800009623462A4A0821384639F037FEB0EE91
:10520800480A49464046FFF76BFF054610F1100F64
:1052180033D0002D3BD118EE100AFBF7FDF8CDE98D
:105228000201009623461F4A0821384639F01EFE1F
:10523800284605B0BDEC028BBDE8F0831A4A01216F
:1052480039F014FE6FF01505F2E7184A01213846C7
:1052580039F00CFE6FF01505EAE7154A01213846CA
:1052680039F004FE6FF01505E2E7124A01213846CD
:1052780039F0FCFD6FF01505DAE7FFF765FFB0EED2
:10528800480A49464046FFF72BFF0546C1E72B462B
:10529800094A0821384639F0E9FDBCE7D7E405009A
:1052A800A8AC0400E4AC0400F8AB040044AC04006F
:1052B80060AC04007CAC0400C8AC040010B5A0B11C
:1052C800194B1B78F3B1184B5B784BBB164CA0609D
:1052D80045F6E832002104F10C0043F01BFCFFF70F
:1052E80089FB01236370002010BD104C4FF48063CC
:1052F80022460F490F4838F09FFC4FF48061204642
:1053080005F04CF90C4B1B6813F0060F02D16FF037
:105318008B00E9E7094A0221074839F074FAF6E7F1
:105328006FF07700E0E700BF5C57002018AD04007D
:1053380060AD0400E8A30400840C002078AD0400EC
:1053480038B50B4B5B787BB1094D00246C7037F096
:1053580061FC05F5A045C5F8F84BC5F8F44B2046A7
:10536800FFF7B0FA204638BD6FF07700FBE700BFC3
:105378005C57002010B50D4C45F620420021204610
:1053880043F0C8FB0A4803F02FF803F033F8012371
:10539800237004F5A04484F80C3C84F81C3C42F2C9
:1053A8001073C4F8183C002010BD00BF5C570020E3
:1053B800114D000010B586B014461A468C4208D12B
:1053C8000A9B1A600B9B089A1A600024204606B0B4
:1053D80010BD04940B9B03934FF470730293099BC5
:1053E80001930091089B022119F08CFF044618B91B
:1053F8000A9B099A1A60E9E7054B1B6813F0070F27
:10540800E4D00346034A0121014839F006FADDE7F2
:10541800A40D002034B004002DE9F04FADF6247D32
:1054280004AF0446884616461D464FF4F0694A46BE
:10543800002107F5F26043F06DFB4A46002107F1B1
:10544800100043F067FB674B1B7C8BB1654B1B78E7
:10545800012B1BD0644A126812F0070F40F0BA8083
:105468006FF01208404607F61477BD46BDE8F08F86
:105478005D4B1B6813F0070F02D16FF00508F1E7C9
:105488005A4A0121584839F0BEF9F6E7EA46554B21
:105498001B7E9B00073303F4FF63ADEB030D0DF197
:1054A800100907F10C03019307F53563009307F51D
:1054B800F2631022414620463EF023FE804660BB40
:1054C8000446484B1B7EA34231DDC4EB041107F1AF
:1054D800100202EB8113434AD26907F108000390D6
:1054E80009EB840002900193FB68009307F5F263CF
:1054F80003EB81134BF680314FF4066C3C480CFBF0
:105508000400FFF757FF834608B90134D9E7364B43
:105518001B6813F0070F02D1D846D546A2E70090C2
:105528002346344A0121304839F082F9F4E7012B47
:1055380009D0022B1CD02C4A126812F0070F3DD15B
:105548006FF01208E9E7D9F80000B968BB1D0293AB
:10555800294B0193F023009300231A460CF0AEFE6A
:10556800002833D1244B3360FB882B60D54679E77C
:10557800D9F80000B968BB1D02931F4B0193F023B3
:10558800009300231A460CF099FE08B18046C4E740
:10559800D9F80400BA1DFB88B9680292164A1A4461
:1055A8000192C3F1F0039BB20093012300220CF097
:1055B80085FE68B9FB885B00FB80D3E70F4A0121B1
:1055C800094839F02AF96FF01208A6E78046A4E7DF
:1055D8008046A2E70A4A0121034839F01EF96FF014
:1055E80012083FE72CC50020A40D002058B0040085
:1055F8006CB400207CB004007CB30020B0B0040080
:10560800DCB0040084B008B50DF1080C8CE80F007C
:10561800304B1B789DF8082093420BD1012B17D0F3
:105628002D4A126812F0070F4DD10020BDE808403E
:1056380004B07047284B1B6813F0070F02D16FF0B6
:105648001200F3E7254A0121234839F0DCF8F6E790
:105658009DF818304BB11F4B1B7CC3B10CF09CFE5E
:105668000028E3D11B4B00221A749DF80C304BB173
:10567800184B1B79CBB10CF0BDFE0028D6D1154BC9
:1056880000221A710020134B83F82000CEE7124B3A
:105698001B6813F0070F02D16FF07700C6E7104AB6
:1056A80001210D4839F0AFF8F6E70B4B1B6813F0F2
:1056B800060F02D16FF07700B8E70A4A02210648C0
:1056C80039F0A1F8F6E7084A0121034839F0A5F8AE
:1056D8000020ABE72CC50020A40D0020F4B0040086
:1056E8002CB1040064B10400DCB0040084B010B52F
:1056F80084B006AC84E80F009DF81830012B0AD05E
:105708003B4A126812F0070F6AD1002004B0BDE8C6
:10571800104004B07047374B1B78012B0DD19DF812
:1057280028304BB3334B1B7CB3B1314B1B6813F0A0
:10573800060F0BD16FF07700E8E742F210720021F4
:1057480008460CF085FE0028E9D0DFE72A4A022146
:10575800274839F058F8EDE70DF10E0301939DF84D
:10576800313000930B9B42F210721021BDF83400C7
:105778000CF09AFE0028C9D19DF81C306BB11D4B66
:105788001B79FBB99DF81F3042F210721021BDF849
:1057980024000CF043FF0028B8D1164CA4460DF1A4
:1057A800180EBEE80F00ACE80F00BEE80F00ACE82A
:1057B8000F00DEF80030CCF80030012384F82030E8
:1057C8000020A3E70A4B1B6813F0060F02D16FF005
:1057D80077009BE7094A0221054839F014F8F6E7F3
:1057E800074A0121024839F018F800208EE700BF67
:1057F800A40D00202CC500209CB10400C4B10400F5
:10580800DCB0040010B582B080B10446124B1B68AE
:1058180013F0070F0FD1104B1B6813F0070F11D1AE
:10582800404080F311884FF0030002DF0B4822F05C
:10583800ABF902B010BD0346094A0121064838F009
:10584800ECFFE8E7FC2300932346064A01210248BF
:1058580038F0EEFFE4E700BFE80C0020B0100020AD
:1058680008B2040060A5040010B54FF47F03D3F814
:105878000432B3F1FF3F08D14FF47F03D3F8083265
:105888009BB24FF6FF7293422BD04FF47F02D2F8AF
:1058980004321B484370C3F307218170190CC1708F
:1058A8001B0E0371D2F808324371C3F307238371C7
:1058B80063F03F03837101230370002110F0DEFCC5
:1058C800041E02DB0024204610BD0E4B1B6813F09B
:1058D800070FF8D023460C4A01210A4838F09DFFEB
:1058E800F1E7084B1B6813F0060F01D10024EAE723
:1058F800064A0221034838F086FF0024E3E700BF88
:1059080050C50020E80C002030B2040048B2040062
:10591800F0B58BB004460D4616460378032B38D8ED
:10592800DFE803F002212B311D4B93E803000790B9
:10593800ADF82010090C8DF8221063792279E178EE
:10594800A07867780DF11C0CCDF814C0049703906B
:10595800029101920093A379124A3146284637F002
:1059680074FB0BB0F0BD104B93E803000790ADF843
:105978002010090C8DF82210DFE70C4A07AB07CA84
:1059880003C31A80D9E70A4A07AB07CA03C31A80B8
:10599800D3E7084A0A2107A837F057FBCDE700BF2D
:1059A80064B204007CB204006CB20400A0B204002B
:1059B800ACB2040074B20400F0B591B002AF00209C
:1059C800786307F1340110F043FC7B6B012B07D19E
:1059D80007F1340107F12C0010F03AFC00243EE0F6
:1059E800404A126812F0070F02D16FF00B0076E000
:1059F800009301233C4A19463A4838F019FFF4E766
:105A08006FF0004C4AE000233B7102237B71002AAF
:105A18004CD1BCF10D0F5EDD0E2342B1032038726C
:105A280000207872B8720120F872B86808616FF3C4
:105A380000056FF341056FF382056FF3C505032178
:105A480061F38815C3F30A0363F353256FF31F55F6
:105A580000232946234808F0ABFEB54601347B6B8A
:105A68009C423BD2C4EBC4001E2207F10C0107F193
:105A78002C031844FFF74CFF1A4B1B6803F007036D
:105A8800022BEBD96E4600233B7202237B7288B04F
:105A980002A911F11002B3D04FF00E0C002AB2D0B7
:105AA800BCF1040FAFDD114B4B61ACE7BCF1080F43
:105AB80002DD07F10C038B6101F11C03002007E0F4
:105AC80000F1380EBE441EF834EC03F801EB013047
